:020000040000FA
:040000003CEF00F0E1
:060008002C82AAED00F0BD
:100018002C80D8CF27F0E8CF28F0E0CF29F0D9CF2F
:100028002AF0DACF2BF09EAA1CEF00F01EEF00F0AA
:1000380030EF00F0ABA223EF00F025EF00F02AEF3D
:1000480000F0AB9800F0AB882AEF00F0FCEC00F071
:1000580030EF00F030EF00F02BC0DAFF2AC0D9FFF4
:1000680029C0E0FF28C0E8FF27C0D8FF2C90100067
:100078004CEF01F0000E266E22BE47EF00F045EF70
:1000880000F04FEF00F0216C221ED8B0222A010E9A
:10009800266E4FEF00F024BE56EF00F054EF00F04C
:1000A8005CEF00F0236C241ED8B0242A5CEF00F02B
:1000B80023502410D8B463EF00F065EF00F095EFFB
:1000C80000F0010E256E6FEF00F0D890233624362D
:1000D800252A6FEF00F024AE74EF00F076EF00F001
:1000E80069EF00F07AEF00F07AEF00F02350215C1E
:1000F80024502258D8A083EF00F085EF00F08BEF52
:1001080000F02350215E2450225A8BEF00F0D89043
:1001180024322332252E7AEF00F095EF00F095EF88
:1001280000F02650D8B49BEF00F09DEF00F0A3EF4D
:1001380000F0216C221ED8B0222AA3EF00F021C0C3
:1001480021F022C022F0A9EF00F012000600D9CF5A
:100158001FF0DACF20F09EACB4EF00F0B6EF00F05D
:10016800E3EF00F09E9CC280D8901334D96E14340B
:10017800DA6E010ED926000EDA22C3CFDEFFC4CF15
:10018800DDFF14BED3EF00F0145007E1070E135C37
:10019800D8B0D1EF00F0D3EF00F0DBEF00F0010EA4
:1001A8001324136E000E1420146EF6EF00F0000EE8
:1001B800146E000E136EF6EF00F0F6EF00F0A1A03B
:1001C800E8EF00F0EAEF00F0F6EF00F0A1907A0E09
:1001D800BC6E120EBB6EC282F6EF00F0F6EF00F0B6
:1001E800F6EF00F020C0DAFF1FC0D9FF2C921100F3
:1001F800150E1124D96E000E1220DA6EAECFDFFF75
:10020800150E1124D96E000E1220DA6EDF5031EC73
:1002180001F0114A122A11C021F012C022F0000E7A
:10022800246E0A0E236E3EEC00F021C011F022C0AD
:1002380012F01FEF01F01200948C948EAC98B896CF
:10024800AC84330EAF6EAB8E9E889E9AAC8AAB8818
:100258009D989F989D8A9F9A1200216E34EF01F015
:10026800ACA239EF01F03BEF01F034EF01F03DEFC4
:1002780001F021C0ADFF120092680E0EC16EC08E53
:10028800C080C082C084000EC46E000EC36E12000F
:1002980000EE01F01E0EEE6AE806FDE12C902C92AD
:1002A800000160EF01F06CEC01F020EC01F066EC6D
:1002B80001F040EC01F0120057EC01F062EF01F0A0
:1002C8003CEF00F09494090EBD6E9E949F8412003A
:0802D800D08EF28EF28C1200B0
:020000040020DA
:08000000FFFFFFFFFFFFFFFF00
:020000040030CA
:0E000000FF881F00FF8381FF0FC00FE00F403D
:00000001FF
